{
  "_format": "hh-sol-artifact-1",
  "contractName": "MonMonFINFT",
  "sourceName": "contracts/NFTmonmon.sol",
  "abi": [
    {
      "inputs": [
        {
          "internalType": "string[]",
          "name": "uris",
          "type": "string[]"
        }
      ],
      "stateMutability": "nonpayable",
      "type": "constructor"
    },
    {
      "inputs": [
        {
          "internalType": "address",
          "name": "sender",
          "type": "address"
        },
        {
          "internalType": "uint256",
          "name": "tokenId",
          "type": "uint256"
        },
        {
          "internalType": "address",
          "name": "owner",
          "type": "address"
        }
      ],
      "name": "ERC721IncorrectOwner",
      "type": "error"
    },
    {
      "inputs": [
        {
          "internalType": "address",
          "name": "operator",
          "type": "address"
        },
        {
          "internalType": "uint256",
          "name": "tokenId",
          "type": "uint256"
        }
      ],
      "name": "ERC721InsufficientApproval",
      "type": "error"
    },
    {
      "inputs": [
        {
          "internalType": "address",
          "name": "approver",
          "type": "address"
        }
      ],
      "name": "ERC721InvalidApprover",
      "type": "error"
    },
    {
      "inputs": [
        {
          "internalType": "address",
          "name": "operator",
          "type": "address"
        }
      ],
      "name": "ERC721InvalidOperator",
      "type": "error"
    },
    {
      "inputs": [
        {
          "internalType": "address",
          "name": "owner",
          "type": "address"
        }
      ],
      "name": "ERC721InvalidOwner",
      "type": "error"
    },
    {
      "inputs": [
        {
          "internalType": "address",
          "name": "receiver",
          "type": "address"
        }
      ],
      "name": "ERC721InvalidReceiver",
      "type": "error"
    },
    {
      "inputs": [
        {
          "internalType": "address",
          "name": "sender",
          "type": "address"
        }
      ],
      "name": "ERC721InvalidSender",
      "type": "error"
    },
    {
      "inputs": [
        {
          "internalType": "uint256",
          "name": "tokenId",
          "type": "uint256"
        }
      ],
      "name": "ERC721NonexistentToken",
      "type": "error"
    },
    {
      "inputs": [
        {
          "internalType": "address",
          "name": "owner",
          "type": "address"
        }
      ],
      "name": "OwnableInvalidOwner",
      "type": "error"
    },
    {
      "inputs": [
        {
          "internalType": "address",
          "name": "account",
          "type": "address"
        }
      ],
      "name": "OwnableUnauthorizedAccount",
      "type": "error"
    },
    {
      "anonymous": false,
      "inputs": [
        {
          "indexed": true,
          "internalType": "address",
          "name": "owner",
          "type": "address"
        },
        {
          "indexed": true,
          "internalType": "address",
          "name": "approved",
          "type": "address"
        },
        {
          "indexed": true,
          "internalType": "uint256",
          "name": "tokenId",
          "type": "uint256"
        }
      ],
      "name": "Approval",
      "type": "event"
    },
    {
      "anonymous": false,
      "inputs": [
        {
          "indexed": true,
          "internalType": "address",
          "name": "owner",
          "type": "address"
        },
        {
          "indexed": true,
          "internalType": "address",
          "name": "operator",
          "type": "address"
        },
        {
          "indexed": false,
          "internalType": "bool",
          "name": "approved",
          "type": "bool"
        }
      ],
      "name": "ApprovalForAll",
      "type": "event"
    },
    {
      "anonymous": false,
      "inputs": [
        {
          "indexed": false,
          "internalType": "uint256",
          "name": "_fromTokenId",
          "type": "uint256"
        },
        {
          "indexed": false,
          "internalType": "uint256",
          "name": "_toTokenId",
          "type": "uint256"
        }
      ],
      "name": "BatchMetadataUpdate",
      "type": "event"
    },
    {
      "anonymous": false,
      "inputs": [
        {
          "indexed": false,
          "internalType": "uint256",
          "name": "_tokenId",
          "type": "uint256"
        }
      ],
      "name": "MetadataUpdate",
      "type": "event"
    },
    {
      "anonymous": false,
      "inputs": [
        {
          "indexed": true,
          "internalType": "address",
          "name": "previousOwner",
          "type": "address"
        },
        {
          "indexed": true,
          "internalType": "address",
          "name": "newOwner",
          "type": "address"
        }
      ],
      "name": "OwnershipTransferred",
      "type": "event"
    },
    {
      "anonymous": false,
      "inputs": [
        {
          "indexed": true,
          "internalType": "address",
          "name": "from",
          "type": "address"
        },
        {
          "indexed": true,
          "internalType": "address",
          "name": "to",
          "type": "address"
        },
        {
          "indexed": true,
          "internalType": "uint256",
          "name": "tokenId",
          "type": "uint256"
        }
      ],
      "name": "Transfer",
      "type": "event"
    },
    {
      "inputs": [],
      "name": "MAX_SUPPLY",
      "outputs": [
        {
          "internalType": "uint256",
          "name": "",
          "type": "uint256"
        }
      ],
      "stateMutability": "view",
      "type": "function"
    },
    {
      "inputs": [
        {
          "internalType": "address",
          "name": "to",
          "type": "address"
        },
        {
          "internalType": "uint256",
          "name": "tokenId",
          "type": "uint256"
        }
      ],
      "name": "approve",
      "outputs": [],
      "stateMutability": "nonpayable",
      "type": "function"
    },
    {
      "inputs": [
        {
          "internalType": "address",
          "name": "owner",
          "type": "address"
        }
      ],
      "name": "balanceOf",
      "outputs": [
        {
          "internalType": "uint256",
          "name": "",
          "type": "uint256"
        }
      ],
      "stateMutability": "view",
      "type": "function"
    },
    {
      "inputs": [
        {
          "internalType": "uint256",
          "name": "tokenId",
          "type": "uint256"
        }
      ],
      "name": "getApproved",
      "outputs": [
        {
          "internalType": "address",
          "name": "",
          "type": "address"
        }
      ],
      "stateMutability": "view",
      "type": "function"
    },
    {
      "inputs": [
        {
          "internalType": "address",
          "name": "owner",
          "type": "address"
        },
        {
          "internalType": "address",
          "name": "operator",
          "type": "address"
        }
      ],
      "name": "isApprovedForAll",
      "outputs": [
        {
          "internalType": "bool",
          "name": "",
          "type": "bool"
        }
      ],
      "stateMutability": "view",
      "type": "function"
    },
    {
      "inputs": [],
      "name": "mint",
      "outputs": [],
      "stateMutability": "payable",
      "type": "function"
    },
    {
      "inputs": [],
      "name": "mintPrice",
      "outputs": [
        {
          "internalType": "uint256",
          "name": "",
          "type": "uint256"
        }
      ],
      "stateMutability": "view",
      "type": "function"
    },
    {
      "inputs": [],
      "name": "name",
      "outputs": [
        {
          "internalType": "string",
          "name": "",
          "type": "string"
        }
      ],
      "stateMutability": "view",
      "type": "function"
    },
    {
      "inputs": [],
      "name": "nextTokenToTransfer",
      "outputs": [
        {
          "internalType": "uint256",
          "name": "",
          "type": "uint256"
        }
      ],
      "stateMutability": "view",
      "type": "function"
    },
    {
      "inputs": [],
      "name": "owner",
      "outputs": [
        {
          "internalType": "address",
          "name": "",
          "type": "address"
        }
      ],
      "stateMutability": "view",
      "type": "function"
    },
    {
      "inputs": [
        {
          "internalType": "uint256",
          "name": "tokenId",
          "type": "uint256"
        }
      ],
      "name": "ownerOf",
      "outputs": [
        {
          "internalType": "address",
          "name": "",
          "type": "address"
        }
      ],
      "stateMutability": "view",
      "type": "function"
    },
    {
      "inputs": [],
      "name": "renounceOwnership",
      "outputs": [],
      "stateMutability": "nonpayable",
      "type": "function"
    },
    {
      "inputs": [
        {
          "internalType": "address",
          "name": "from",
          "type": "address"
        },
        {
          "internalType": "address",
          "name": "to",
          "type": "address"
        },
        {
          "internalType": "uint256",
          "name": "tokenId",
          "type": "uint256"
        }
      ],
      "name": "safeTransferFrom",
      "outputs": [],
      "stateMutability": "nonpayable",
      "type": "function"
    },
    {
      "inputs": [
        {
          "internalType": "address",
          "name": "from",
          "type": "address"
        },
        {
          "internalType": "address",
          "name": "to",
          "type": "address"
        },
        {
          "internalType": "uint256",
          "name": "tokenId",
          "type": "uint256"
        },
        {
          "internalType": "bytes",
          "name": "data",
          "type": "bytes"
        }
      ],
      "name": "safeTransferFrom",
      "outputs": [],
      "stateMutability": "nonpayable",
      "type": "function"
    },
    {
      "inputs": [
        {
          "internalType": "address",
          "name": "operator",
          "type": "address"
        },
        {
          "internalType": "bool",
          "name": "approved",
          "type": "bool"
        }
      ],
      "name": "setApprovalForAll",
      "outputs": [],
      "stateMutability": "nonpayable",
      "type": "function"
    },
    {
      "inputs": [
        {
          "internalType": "uint256",
          "name": "newPrice",
          "type": "uint256"
        }
      ],
      "name": "setMintPrice",
      "outputs": [],
      "stateMutability": "nonpayable",
      "type": "function"
    },
    {
      "inputs": [
        {
          "internalType": "bytes4",
          "name": "interfaceId",
          "type": "bytes4"
        }
      ],
      "name": "supportsInterface",
      "outputs": [
        {
          "internalType": "bool",
          "name": "",
          "type": "bool"
        }
      ],
      "stateMutability": "view",
      "type": "function"
    },
    {
      "inputs": [],
      "name": "symbol",
      "outputs": [
        {
          "internalType": "string",
          "name": "",
          "type": "string"
        }
      ],
      "stateMutability": "view",
      "type": "function"
    },
    {
      "inputs": [
        {
          "internalType": "uint256",
          "name": "tokenId",
          "type": "uint256"
        }
      ],
      "name": "tokenURI",
      "outputs": [
        {
          "internalType": "string",
          "name": "",
          "type": "string"
        }
      ],
      "stateMutability": "view",
      "type": "function"
    },
    {
      "inputs": [
        {
          "internalType": "address",
          "name": "from",
          "type": "address"
        },
        {
          "internalType": "address",
          "name": "to",
          "type": "address"
        },
        {
          "internalType": "uint256",
          "name": "tokenId",
          "type": "uint256"
        }
      ],
      "name": "transferFrom",
      "outputs": [],
      "stateMutability": "nonpayable",
      "type": "function"
    },
    {
      "inputs": [
        {
          "internalType": "address",
          "name": "newOwner",
          "type": "address"
        }
      ],
      "name": "transferOwnership",
      "outputs": [],
      "stateMutability": "nonpayable",
      "type": "function"
    }
  ],
  "bytecode": "0x6080604052662386f26fc1000060085560016009553480156200002157600080fd5b5060405162003fa438038062003fa483398181016040528101906200004791906200105f565b336040518060400160405280600881526020017f4d6f6e4d6f6e46490000000000000000000000000000000000000000000000008152506040518060400160405280600381526020017f4d4d4600000000000000000000000000000000000000000000000000000000008152508160009081620000c59190620012fb565b508060019081620000d79190620012fb565b505050600073ffffffffffffffffffffffffffffffffffffffff168173ffffffffffffffffffffffffffffffffffffffff16036200014f5760006040517f1e4fbdf700000000000000000000000000000000000000000000000000000000815260040162000146919062001427565b60405180910390fd5b62000160816200022060201b60201c565b50600a815114620001a8576040517f08c379a00000000000000000000000000000000000000000000000000000000081526004016200019f90620014a5565b60405180910390fd5b60005b600a81101562000218576000600182620001c69190620014f6565b9050620001da3382620002e660201b60201c565b6200020981848481518110620001f557620001f462001531565b5b60200260200101516200030c60201b60201c565b508080600101915050620001ab565b5050620016fb565b6000600760009054906101000a900473ffffffffffffffffffffffffffffffffffffffff16905081600760006101000a81548173ffffffffffffffffffffffffffffffffffffffff021916908373ffffffffffffffffffffffffffffffffffffffff1602179055508173ffffffffffffffffffffffffffffffffffffffff168173ffffffffffffffffffffffffffffffffffffffff167f8be0079c531659141344cd1fd0a4f28419497f9722a3daafe3b4186f6b6457e060405160405180910390a35050565b620003088282604051806020016040528060008152506200036c60201b60201c565b5050565b806006600084815260200190815260200160002090816200032e9190620012fb565b507ff8e1a15aba9398e019f0b49df1a4fde98ee17ae345cb5f6b5e2c27f5033e8ce78260405162000360919062001571565b60405180910390a15050565b6200037e8383620003a860201b60201c565b620003a362000392620004af60201b60201c565b6000858585620004b760201b60201c565b505050565b600073ffffffffffffffffffffffffffffffffffffffff168273ffffffffffffffffffffffffffffffffffffffff16036200041d5760006040517f64a0ae9200000000000000000000000000000000000000000000000000000000815260040162000414919062001427565b60405180910390fd5b600062000433838360006200067760201b60201c565b9050600073ffffffffffffffffffffffffffffffffffffffff168173ffffffffffffffffffffffffffffffffffffffff1614620004aa5760006040517f73c6ac6e000000000000000000000000000000000000000000000000000000008152600401620004a1919062001427565b60405180910390fd5b505050565b600033905090565b60008373ffffffffffffffffffffffffffffffffffffffff163b111562000670578273ffffffffffffffffffffffffffffffffffffffff1663150b7a02868685856040518563ffffffff1660e01b8152600401620005199493929190620015eb565b6020604051808303816000875af19250505080156200055857506040513d601f19601f820116820180604052508101906200055591906200169c565b60015b620005e2573d80600081146200058b576040519150601f19603f3d011682016040523d82523d6000602084013e62000590565b606091505b506000815103620005da57836040517f64a0ae92000000000000000000000000000000000000000000000000000000008152600401620005d1919062001427565b60405180910390fd5b805181602001fd5b63150b7a0260e01b7bffffffffffffffffffffffffffffffffffffffffffffffffffffffff1916817bffffffffffffffffffffffffffffffffffffffffffffffffffffffff1916146200066e57836040517f64a0ae9200000000000000000000000000000000000000000000000000000000815260040162000665919062001427565b60405180910390fd5b505b5050505050565b6000806200068b84620008ac60201b60201c565b9050600073ffffffffffffffffffffffffffffffffffffffff168373ffffffffffffffffffffffffffffffffffffffff1614620006d657620006d5818486620008e960201b60201c565b5b600073ffffffffffffffffffffffffffffffffffffffff168173ffffffffffffffffffffffffffffffffffffffff1614620007705762000721600085600080620009bb60201b60201c565b6001600360008373ffffffffffffffffffffffffffffffffffffffff1673ffffffffffffffffffffffffffffffffffffffff168152602001908152602001600020600082825403925050819055505b600073ffffffffffffffffffffffffffffffffffffffff168573ffffffffffffffffffffffffffffffffffffffff1614620007f4576001600360008773ffffffffffffffffffffffffffffffffffffffff1673ffffffffffffffffffffffffffffffffffffffff168152602001908152602001600020600082825401925050819055505b846002600086815260200190815260200160002060006101000a81548173ffffffffffffffffffffffffffffffffffffffff021916908373ffffffffffffffffffffffffffffffffffffffff160217905550838573ffffffffffffffffffffffffffffffffffffffff168273ffffffffffffffffffffffffffffffffffffffff167fddf252ad1be2c89b69c2b068fc378daa952ba7f163c4a11628f55a4df523b3ef60405160405180910390a4809150509392505050565b60006002600083815260200190815260200160002060009054906101000a900473ffffffffffffffffffffffffffffffffffffffff169050919050565b620008fc83838362000b9860201b60201c565b620009b657600073ffffffffffffffffffffffffffffffffffffffff168373ffffffffffffffffffffffffffffffffffffffff16036200097557806040517f7e2732890000000000000000000000000000000000000000000000000000000081526004016200096c919062001571565b60405180910390fd5b81816040517f177e802f000000000000000000000000000000000000000000000000000000008152600401620009ad929190620016ce565b60405180910390fd5b505050565b8080620009f55750600073ffffffffffffffffffffffffffffffffffffffff168273ffffffffffffffffffffffffffffffffffffffff1614155b1562000b4057600062000a0e8462000c6c60201b60201c565b9050600073ffffffffffffffffffffffffffffffffffffffff168373ffffffffffffffffffffffffffffffffffffffff161415801562000a7a57508273ffffffffffffffffffffffffffffffffffffffff168173ffffffffffffffffffffffffffffffffffffffff1614155b801562000a96575062000a94818462000cff60201b60201c565b155b1562000adb57826040517fa9fbf51f00000000000000000000000000000000000000000000000000000000815260040162000ad2919062001427565b60405180910390fd5b811562000b3e57838573ffffffffffffffffffffffffffffffffffffffff168273ffffffffffffffffffffffffffffffffffffffff167f8c5be1e5ebec7d5bd14f71427d1e84f3dd0314c0f7b2291e5b200ac8c7c3b92560405160405180910390a45b505b836004600085815260200190815260200160002060006101000a81548173ffffffffffffffffffffffffffffffffffffffff021916908373ffffffffffffffffffffffffffffffffffffffff16021790555050505050565b60008073ffffffffffffffffffffffffffffffffffffffff168373ffffffffffffffffffffffffffffffffffffffff161415801562000c6357508273ffffffffffffffffffffffffffffffffffffffff168473ffffffffffffffffffffffffffffffffffffffff16148062000c1b575062000c1a848462000cff60201b60201c565b5b8062000c6257508273ffffffffffffffffffffffffffffffffffffffff1662000c4a8362000d9360201b60201c565b73ffffffffffffffffffffffffffffffffffffffff16145b5b90509392505050565b60008062000c8083620008ac60201b60201c565b9050600073ffffffffffffffffffffffffffffffffffffffff168173ffffffffffffffffffffffffffffffffffffffff160362000cf657826040517f7e27328900000000000000000000000000000000000000000000000000000000815260040162000ced919062001571565b60405180910390fd5b80915050919050565b6000600560008473ffffffffffffffffffffffffffffffffffffffff1673ffffffffffffffffffffffffffffffffffffffff16815260200190815260200160002060008373ffffffffffffffffffffffffffffffffffffffff1673ffffffffffffffffffffffffffffffffffffffff16815260200190815260200160002060009054906101000a900460ff16905092915050565b60006004600083815260200190815260200160002060009054906101000a900473ffffffffffffffffffffffffffffffffffffffff169050919050565b6000604051905090565b600080fd5b600080fd5b600080fd5b6000601f19601f8301169050919050565b7f4e487b7100000000000000000000000000000000000000000000000000000000600052604160045260246000fd5b62000e348262000de9565b810181811067ffffffffffffffff8211171562000e565762000e5562000dfa565b5b80604052505050565b600062000e6b62000dd0565b905062000e79828262000e29565b919050565b600067ffffffffffffffff82111562000e9c5762000e9b62000dfa565b5b602082029050602081019050919050565b600080fd5b600080fd5b600067ffffffffffffffff82111562000ed55762000ed462000dfa565b5b62000ee08262000de9565b9050602081019050919050565b60005b8381101562000f0d57808201518184015260208101905062000ef0565b60008484015250505050565b600062000f3062000f2a8462000eb7565b62000e5f565b90508281526020810184848401111562000f4f5762000f4e62000eb2565b5b62000f5c84828562000eed565b509392505050565b600082601f83011262000f7c5762000f7b62000de4565b5b815162000f8e84826020860162000f19565b91505092915050565b600062000fae62000fa88462000e7e565b62000e5f565b9050808382526020820190506020840283018581111562000fd45762000fd362000ead565b5b835b818110156200102257805167ffffffffffffffff81111562000ffd5762000ffc62000de4565b5b8086016200100c898262000f64565b8552602085019450505060208101905062000fd6565b5050509392505050565b600082601f83011262001044576200104362000de4565b5b81516200105684826020860162000f97565b91505092915050565b60006020828403121562001078576200107762000dda565b5b600082015167ffffffffffffffff81111562001099576200109862000ddf565b5b620010a7848285016200102c565b91505092915050565b600081519050919050565b7f4e487b7100000000000000000000000000000000000000000000000000000000600052602260045260246000fd5b600060028204905060018216806200110357607f821691505b602082108103620011195762001118620010bb565b5b50919050565b60008190508160005260206000209050919050565b60006020601f8301049050919050565b600082821b905092915050565b600060088302620011837fffffffffffffffffffffffffffffffffffffffffffffffffffffffffffffffff8262001144565b6200118f868362001144565b95508019841693508086168417925050509392505050565b6000819050919050565b6000819050919050565b6000620011dc620011d6620011d084620011a7565b620011b1565b620011a7565b9050919050565b6000819050919050565b620011f883620011bb565b620012106200120782620011e3565b84845462001151565b825550505050565b600090565b6200122762001218565b62001234818484620011ed565b505050565b5b818110156200125c57620012506000826200121d565b6001810190506200123a565b5050565b601f821115620012ab5762001275816200111f565b620012808462001134565b8101602085101562001290578190505b620012a86200129f8562001134565b83018262001239565b50505b505050565b600082821c905092915050565b6000620012d060001984600802620012b0565b1980831691505092915050565b6000620012eb8383620012bd565b9150826002028217905092915050565b6200130682620010b0565b67ffffffffffffffff81111562001322576200132162000dfa565b5b6200132e8254620010ea565b6200133b82828562001260565b600060209050601f8311600181146200137357600084156200135e578287015190505b6200136a8582620012dd565b865550620013da565b601f19841662001383866200111f565b60005b82811015620013ad5784890151825560018201915060208501945060208101905062001386565b86831015620013cd5784890151620013c9601f891682620012bd565b8355505b6001600288020188555050505b505050505050565b600073ffffffffffffffffffffffffffffffffffffffff82169050919050565b60006200140f82620013e2565b9050919050565b620014218162001402565b82525050565b60006020820190506200143e600083018462001416565b92915050565b600082825260208201905092915050565b7f4e6565642065786163746c792031302055524973000000000000000000000000600082015250565b60006200148d60148362001444565b91506200149a8262001455565b602082019050919050565b60006020820190508181036000830152620014c0816200147e565b9050919050565b7f4e487b7100000000000000000000000000000000000000000000000000000000600052601160045260246000fd5b60006200150382620011a7565b91506200151083620011a7565b92508282019050808211156200152b576200152a620014c7565b5b92915050565b7f4e487b7100000000000000000000000000000000000000000000000000000000600052603260045260246000fd5b6200156b81620011a7565b82525050565b600060208201905062001588600083018462001560565b92915050565b600081519050919050565b600082825260208201905092915050565b6000620015b7826200158e565b620015c3818562001599565b9350620015d581856020860162000eed565b620015e08162000de9565b840191505092915050565b600060808201905062001602600083018762001416565b62001611602083018662001416565b62001620604083018562001560565b8181036060830152620016348184620015aa565b905095945050505050565b60007fffffffff0000000000000000000000000000000000000000000000000000000082169050919050565b62001676816200163f565b81146200168257600080fd5b50565b60008151905062001696816200166b565b92915050565b600060208284031215620016b557620016b462000dda565b5b6000620016c58482850162001685565b91505092915050565b6000604082019050620016e5600083018562001416565b620016f4602083018462001560565b9392505050565b612899806200170b6000396000f3fe60806040526004361061012a5760003560e01c80636817c76c116100ab578063a22cb4651161006f578063a22cb465146103c1578063b88d4fde146103ea578063c87b56dd14610413578063e985e9c514610450578063f2fde38b1461048d578063f4a0a528146104b65761012a565b80636817c76c146102ec57806370a0823114610317578063715018a6146103545780638da5cb5b1461036b57806395d89b41146103965761012a565b80631249c58b116100f25780631249c58b1461022857806323b872dd1461023257806332cb6b0c1461025b57806342842e0e146102865780636352211e146102af5761012a565b806301ffc9a71461012f57806306fdde031461016c578063081812fc14610197578063095ea7b3146101d45780630ac5318c146101fd575b600080fd5b34801561013b57600080fd5b5061015660048036038101906101519190611e50565b6104df565b6040516101639190611e98565b60405180910390f35b34801561017857600080fd5b50610181610540565b60405161018e9190611f43565b60405180910390f35b3480156101a357600080fd5b506101be60048036038101906101b99190611f9b565b6105d2565b6040516101cb9190612009565b60405180910390f35b3480156101e057600080fd5b506101fb60048036038101906101f69190612050565b6105ee565b005b34801561020957600080fd5b50610212610604565b60405161021f919061209f565b60405180910390f35b61023061060a565b005b34801561023e57600080fd5b50610259600480360381019061025491906120ba565b61085a565b005b34801561026757600080fd5b5061027061095c565b60405161027d919061209f565b60405180910390f35b34801561029257600080fd5b506102ad60048036038101906102a891906120ba565b610961565b005b3480156102bb57600080fd5b506102d660048036038101906102d19190611f9b565b610981565b6040516102e39190612009565b60405180910390f35b3480156102f857600080fd5b50610301610993565b60405161030e919061209f565b60405180910390f35b34801561032357600080fd5b5061033e6004803603810190610339919061210d565b610999565b60405161034b919061209f565b60405180910390f35b34801561036057600080fd5b50610369610a53565b005b34801561037757600080fd5b50610380610a67565b60405161038d9190612009565b60405180910390f35b3480156103a257600080fd5b506103ab610a91565b6040516103b89190611f43565b60405180910390f35b3480156103cd57600080fd5b506103e860048036038101906103e39190612166565b610b23565b005b3480156103f657600080fd5b50610411600480360381019061040c91906122db565b610b39565b005b34801561041f57600080fd5b5061043a60048036038101906104359190611f9b565b610b5e565b6040516104479190611f43565b60405180910390f35b34801561045c57600080fd5b506104776004803603810190610472919061235e565b610c71565b6040516104849190611e98565b60405180910390f35b34801561049957600080fd5b506104b460048036038101906104af919061210d565b610d05565b005b3480156104c257600080fd5b506104dd60048036038101906104d89190611f9b565b610d8b565b005b6000634906490660e01b7bffffffffffffffffffffffffffffffffffffffffffffffffffffffff1916827bffffffffffffffffffffffffffffffffffffffffffffffffffffffff19161480610539575061053882610d9d565b5b9050919050565b60606000805461054f906123cd565b80601f016020809104026020016040519081016040528092919081815260200182805461057b906123cd565b80156105c85780601f1061059d576101008083540402835291602001916105c8565b820191906000526020600020905b8154815290600101906020018083116105ab57829003601f168201915b5050505050905090565b60006105dd82610e7f565b506105e782610f07565b9050919050565b61060082826105fb610f44565b610f4c565b5050565b60095481565b610612610a67565b73ffffffffffffffffffffffffffffffffffffffff163373ffffffffffffffffffffffffffffffffffffffff160361067f576040517f08c379a00000000000000000000000000000000000000000000000000000000081526004016106769061244a565b60405180910390fd5b600061068a33610999565b146106ca576040517f08c379a00000000000000000000000000000000000000000000000000000000081526004016106c1906124b6565b60405180910390fd5b600a6009541115610710576040517f08c379a000000000000000000000000000000000000000000000000000000000815260040161070790612522565b60405180910390fd5b600854341015610755576040517f08c379a000000000000000000000000000000000000000000000000000000000815260040161074c9061258e565b60405180910390fd5b60006009549050600061076782610981565b9050610771610a67565b73ffffffffffffffffffffffffffffffffffffffff168173ffffffffffffffffffffffffffffffffffffffff16146107de576040517f08c379a00000000000000000000000000000000000000000000000000000000081526004016107d5906125fa565b60405180910390fd5b6107f06107e9610a67565b3384610f5e565b6009600081548092919061080390612649565b9190505550610810610a67565b73ffffffffffffffffffffffffffffffffffffffff166108fc349081150290604051600060405180830381858888f19350505050158015610855573d6000803e3d6000fd5b505050565b600073ffffffffffffffffffffffffffffffffffffffff168273ffffffffffffffffffffffffffffffffffffffff16036108cc5760006040517f64a0ae920000000000000000000000000000000000000000000000000000000081526004016108c39190612009565b60405180910390fd5b60006108e083836108db610f44565b6110cb565b90508373ffffffffffffffffffffffffffffffffffffffff168173ffffffffffffffffffffffffffffffffffffffff1614610956578382826040517f64283d7b00000000000000000000000000000000000000000000000000000000815260040161094d93929190612691565b60405180910390fd5b50505050565b600a81565b61097c83838360405180602001604052806000815250610b39565b505050565b600061098c82610e7f565b9050919050565b60085481565b60008073ffffffffffffffffffffffffffffffffffffffff168273ffffffffffffffffffffffffffffffffffffffff1603610a0c5760006040517f89c62b64000000000000000000000000000000000000000000000000000000008152600401610a039190612009565b60405180910390fd5b600360008373ffffffffffffffffffffffffffffffffffffffff1673ffffffffffffffffffffffffffffffffffffffff168152602001908152602001600020549050919050565b610a5b6112e5565b610a65600061136c565b565b6000600760009054906101000a900473ffffffffffffffffffffffffffffffffffffffff16905090565b606060018054610aa0906123cd565b80601f0160208091040260200160405190810160405280929190818152602001828054610acc906123cd565b8015610b195780601f10610aee57610100808354040283529160200191610b19565b820191906000526020600020905b815481529060010190602001808311610afc57829003601f168201915b5050505050905090565b610b35610b2e610f44565b8383611432565b5050565b610b4484848461085a565b610b58610b4f610f44565b858585856115a1565b50505050565b6060610b6982610e7f565b506000600660008481526020019081526020016000208054610b8a906123cd565b80601f0160208091040260200160405190810160405280929190818152602001828054610bb6906123cd565b8015610c035780601f10610bd857610100808354040283529160200191610c03565b820191906000526020600020905b815481529060010190602001808311610be657829003601f168201915b505050505090506000610c14611752565b90506000815103610c29578192505050610c6c565b600082511115610c5e578082604051602001610c46929190612704565b60405160208183030381529060405292505050610c6c565b610c6784611769565b925050505b919050565b6000600560008473ffffffffffffffffffffffffffffffffffffffff1673ffffffffffffffffffffffffffffffffffffffff16815260200190815260200160002060008373ffffffffffffffffffffffffffffffffffffffff1673ffffffffffffffffffffffffffffffffffffffff16815260200190815260200160002060009054906101000a900460ff16905092915050565b610d0d6112e5565b600073ffffffffffffffffffffffffffffffffffffffff168173ffffffffffffffffffffffffffffffffffffffff1603610d7f5760006040517f1e4fbdf7000000000000000000000000000000000000000000000000000000008152600401610d769190612009565b60405180910390fd5b610d888161136c565b50565b610d936112e5565b8060088190555050565b60007f80ac58cd000000000000000000000000000000000000000000000000000000007bffffffffffffffffffffffffffffffffffffffffffffffffffffffff1916827bffffffffffffffffffffffffffffffffffffffffffffffffffffffff19161480610e6857507f5b5e139f000000000000000000000000000000000000000000000000000000007bffffffffffffffffffffffffffffffffffffffffffffffffffffffff1916827bffffffffffffffffffffffffffffffffffffffffffffffffffffffff1916145b80610e785750610e77826117d2565b5b9050919050565b600080610e8b8361183c565b9050600073ffffffffffffffffffffffffffffffffffffffff168173ffffffffffffffffffffffffffffffffffffffff1603610efe57826040517f7e273289000000000000000000000000000000000000000000000000000000008152600401610ef5919061209f565b60405180910390fd5b80915050919050565b60006004600083815260200190815260200160002060009054906101000a900473ffffffffffffffffffffffffffffffffffffffff169050919050565b600033905090565b610f598383836001611879565b505050565b600073ffffffffffffffffffffffffffffffffffffffff168273ffffffffffffffffffffffffffffffffffffffff1603610fd05760006040517f64a0ae92000000000000000000000000000000000000000000000000000000008152600401610fc79190612009565b60405180910390fd5b6000610fde838360006110cb565b9050600073ffffffffffffffffffffffffffffffffffffffff168173ffffffffffffffffffffffffffffffffffffffff160361105157816040517f7e273289000000000000000000000000000000000000000000000000000000008152600401611048919061209f565b60405180910390fd5b8373ffffffffffffffffffffffffffffffffffffffff168173ffffffffffffffffffffffffffffffffffffffff16146110c5578382826040517f64283d7b0000000000000000000000000000000000000000000000000000000081526004016110bc93929190612691565b60405180910390fd5b50505050565b6000806110d78461183c565b9050600073ffffffffffffffffffffffffffffffffffffffff168373ffffffffffffffffffffffffffffffffffffffff161461111957611118818486611a3e565b5b600073ffffffffffffffffffffffffffffffffffffffff168173ffffffffffffffffffffffffffffffffffffffff16146111aa5761115b600085600080611879565b6001600360008373ffffffffffffffffffffffffffffffffffffffff1673ffffffffffffffffffffffffffffffffffffffff168152602001908152602001600020600082825403925050819055505b600073ffffffffffffffffffffffffffffffffffffffff168573ffffffffffffffffffffffffffffffffffffffff161461122d576001600360008773ffffffffffffffffffffffffffffffffffffffff1673ffffffffffffffffffffffffffffffffffffffff168152602001908152602001600020600082825401925050819055505b846002600086815260200190815260200160002060006101000a81548173ffffffffffffffffffffffffffffffffffffffff021916908373ffffffffffffffffffffffffffffffffffffffff160217905550838573ffffffffffffffffffffffffffffffffffffffff168273ffffffffffffffffffffffffffffffffffffffff167fddf252ad1be2c89b69c2b068fc378daa952ba7f163c4a11628f55a4df523b3ef60405160405180910390a4809150509392505050565b6112ed610f44565b73ffffffffffffffffffffffffffffffffffffffff1661130b610a67565b73ffffffffffffffffffffffffffffffffffffffff161461136a5761132e610f44565b6040517f118cdaa70000000000000000000000000000000000000000000000000000000081526004016113619190612009565b60405180910390fd5b565b6000600760009054906101000a900473ffffffffffffffffffffffffffffffffffffffff16905081600760006101000a81548173ffffffffffffffffffffffffffffffffffffffff021916908373ffffffffffffffffffffffffffffffffffffffff1602179055508173ffffffffffffffffffffffffffffffffffffffff168173ffffffffffffffffffffffffffffffffffffffff167f8be0079c531659141344cd1fd0a4f28419497f9722a3daafe3b4186f6b6457e060405160405180910390a35050565b600073ffffffffffffffffffffffffffffffffffffffff168273ffffffffffffffffffffffffffffffffffffffff16036114a357816040517f5b08ba1800000000000000000000000000000000000000000000000000000000815260040161149a9190612009565b60405180910390fd5b80600560008573ffffffffffffffffffffffffffffffffffffffff1673ffffffffffffffffffffffffffffffffffffffff16815260200190815260200160002060008473ffffffffffffffffffffffffffffffffffffffff1673ffffffffffffffffffffffffffffffffffffffff16815260200190815260200160002060006101000a81548160ff0219169083151502179055508173ffffffffffffffffffffffffffffffffffffffff168373ffffffffffffffffffffffffffffffffffffffff167f17307eab39ab6107e8899845ad3d59bd9653f200f220920489ca2b5937696c31836040516115949190611e98565b60405180910390a3505050565b60008373ffffffffffffffffffffffffffffffffffffffff163b111561174b578273ffffffffffffffffffffffffffffffffffffffff1663150b7a02868685856040518563ffffffff1660e01b8152600401611600949392919061277d565b6020604051808303816000875af192505050801561163c57506040513d601f19601f8201168201806040525081019061163991906127de565b60015b6116c0573d806000811461166c576040519150601f19603f3d011682016040523d82523d6000602084013e611671565b606091505b5060008151036116b857836040517f64a0ae920000000000000000000000000000000000000000000000000000000081526004016116af9190612009565b60405180910390fd5b805181602001fd5b63150b7a0260e01b7bffffffffffffffffffffffffffffffffffffffffffffffffffffffff1916817bffffffffffffffffffffffffffffffffffffffffffffffffffffffff19161461174957836040517f64a0ae920000000000000000000000000000000000000000000000000000000081526004016117409190612009565b60405180910390fd5b505b5050505050565b606060405180602001604052806000815250905090565b606061177482610e7f565b50600061177f611752565b9050600081511161179f57604051806020016040528060008152506117ca565b806117a984611b02565b6040516020016117ba929190612704565b6040516020818303038152906040525b915050919050565b60007f01ffc9a7000000000000000000000000000000000000000000000000000000007bffffffffffffffffffffffffffffffffffffffffffffffffffffffff1916827bffffffffffffffffffffffffffffffffffffffffffffffffffffffff1916149050919050565b60006002600083815260200190815260200160002060009054906101000a900473ffffffffffffffffffffffffffffffffffffffff169050919050565b80806118b25750600073ffffffffffffffffffffffffffffffffffffffff168273ffffffffffffffffffffffffffffffffffffffff1614155b156119e65760006118c284610e7f565b9050600073ffffffffffffffffffffffffffffffffffffffff168373ffffffffffffffffffffffffffffffffffffffff161415801561192d57508273ffffffffffffffffffffffffffffffffffffffff168173ffffffffffffffffffffffffffffffffffffffff1614155b8015611940575061193e8184610c71565b155b1561198257826040517fa9fbf51f0000000000000000000000000000000000000000000000000000000081526004016119799190612009565b60405180910390fd5b81156119e457838573ffffffffffffffffffffffffffffffffffffffff168273ffffffffffffffffffffffffffffffffffffffff167f8c5be1e5ebec7d5bd14f71427d1e84f3dd0314c0f7b2291e5b200ac8c7c3b92560405160405180910390a45b505b836004600085815260200190815260200160002060006101000a81548173ffffffffffffffffffffffffffffffffffffffff021916908373ffffffffffffffffffffffffffffffffffffffff16021790555050505050565b611a49838383611bd0565b611afd57600073ffffffffffffffffffffffffffffffffffffffff168373ffffffffffffffffffffffffffffffffffffffff1603611abe57806040517f7e273289000000000000000000000000000000000000000000000000000000008152600401611ab5919061209f565b60405180910390fd5b81816040517f177e802f000000000000000000000000000000000000000000000000000000008152600401611af492919061280b565b60405180910390fd5b505050565b606060006001611b1184611c91565b01905060008167ffffffffffffffff811115611b3057611b2f6121b0565b5b6040519080825280601f01601f191660200182016040528015611b625781602001600182028036833780820191505090505b509050600082602001820190505b600115611bc5578080600190039150507f3031323334353637383961626364656600000000000000000000000000000000600a86061a8153600a8581611bb957611bb8612834565b5b04945060008503611b70575b819350505050919050565b60008073ffffffffffffffffffffffffffffffffffffffff168373ffffffffffffffffffffffffffffffffffffffff1614158015611c8857508273ffffffffffffffffffffffffffffffffffffffff168473ffffffffffffffffffffffffffffffffffffffff161480611c495750611c488484610c71565b5b80611c8757508273ffffffffffffffffffffffffffffffffffffffff16611c6f83610f07565b73ffffffffffffffffffffffffffffffffffffffff16145b5b90509392505050565b600080600090507a184f03e93ff9f4daa797ed6e38ed64bf6a1f0100000000000000008310611cef577a184f03e93ff9f4daa797ed6e38ed64bf6a1f0100000000000000008381611ce557611ce4612834565b5b0492506040810190505b6d04ee2d6d415b85acef81000000008310611d2c576d04ee2d6d415b85acef81000000008381611d2257611d21612834565b5b0492506020810190505b662386f26fc100008310611d5b57662386f26fc100008381611d5157611d50612834565b5b0492506010810190505b6305f5e1008310611d84576305f5e1008381611d7a57611d79612834565b5b0492506008810190505b6127108310611da9576127108381611d9f57611d9e612834565b5b0492506004810190505b60648310611dcc5760648381611dc257611dc1612834565b5b0492506002810190505b600a8310611ddb576001810190505b80915050919050565b6000604051905090565b600080fd5b600080fd5b60007fffffffff0000000000000000000000000000000000000000000000000000000082169050919050565b611e2d81611df8565b8114611e3857600080fd5b50565b600081359050611e4a81611e24565b92915050565b600060208284031215611e6657611e65611dee565b5b6000611e7484828501611e3b565b91505092915050565b60008115159050919050565b611e9281611e7d565b82525050565b6000602082019050611ead6000830184611e89565b92915050565b600081519050919050565b600082825260208201905092915050565b60005b83811015611eed578082015181840152602081019050611ed2565b60008484015250505050565b6000601f19601f8301169050919050565b6000611f1582611eb3565b611f1f8185611ebe565b9350611f2f818560208601611ecf565b611f3881611ef9565b840191505092915050565b60006020820190508181036000830152611f5d8184611f0a565b905092915050565b6000819050919050565b611f7881611f65565b8114611f8357600080fd5b50565b600081359050611f9581611f6f565b92915050565b600060208284031215611fb157611fb0611dee565b5b6000611fbf84828501611f86565b91505092915050565b600073ffffffffffffffffffffffffffffffffffffffff82169050919050565b6000611ff382611fc8565b9050919050565b61200381611fe8565b82525050565b600060208201905061201e6000830184611ffa565b92915050565b61202d81611fe8565b811461203857600080fd5b50565b60008135905061204a81612024565b92915050565b6000806040838503121561206757612066611dee565b5b60006120758582860161203b565b925050602061208685828601611f86565b9150509250929050565b61209981611f65565b82525050565b60006020820190506120b46000830184612090565b92915050565b6000806000606084860312156120d3576120d2611dee565b5b60006120e18682870161203b565b93505060206120f28682870161203b565b925050604061210386828701611f86565b9150509250925092565b60006020828403121561212357612122611dee565b5b60006121318482850161203b565b91505092915050565b61214381611e7d565b811461214e57600080fd5b50565b6000813590506121608161213a565b92915050565b6000806040838503121561217d5761217c611dee565b5b600061218b8582860161203b565b925050602061219c85828601612151565b9150509250929050565b600080fd5b600080fd5b7f4e487b7100000000000000000000000000000000000000000000000000000000600052604160045260246000fd5b6121e882611ef9565b810181811067ffffffffffffffff82111715612207576122066121b0565b5b80604052505050565b600061221a611de4565b905061222682826121df565b919050565b600067ffffffffffffffff821115612246576122456121b0565b5b61224f82611ef9565b9050602081019050919050565b82818337600083830152505050565b600061227e6122798461222b565b612210565b90508281526020810184848401111561229a576122996121ab565b5b6122a584828561225c565b509392505050565b600082601f8301126122c2576122c16121a6565b5b81356122d284826020860161226b565b91505092915050565b600080600080608085870312156122f5576122f4611dee565b5b60006123038782880161203b565b94505060206123148782880161203b565b935050604061232587828801611f86565b925050606085013567ffffffffffffffff81111561234657612345611df3565b5b612352878288016122ad565b91505092959194509250565b6000806040838503121561237557612374611dee565b5b60006123838582860161203b565b92505060206123948582860161203b565b9150509250929050565b7f4e487b7100000000000000000000000000000000000000000000000000000000600052602260045260246000fd5b600060028204905060018216806123e557607f821691505b6020821081036123f8576123f761239e565b5b50919050565b7f4f776e65722063616e6e6f74206d696e74000000000000000000000000000000600082015250565b6000612434601183611ebe565b915061243f826123fe565b602082019050919050565b6000602082019050818103600083015261246381612427565b9050919050565b7f596f7520616c7265616479206f776e20616e204e465400000000000000000000600082015250565b60006124a0601683611ebe565b91506124ab8261246a565b602082019050919050565b600060208201905081810360008301526124cf81612493565b9050919050565b7f416c6c204e4654732068617665206265656e207472616e736665727265640000600082015250565b600061250c601e83611ebe565b9150612517826124d6565b602082019050919050565b6000602082019050818103600083015261253b816124ff565b9050919050565b7f496e73756666696369656e74207061796d656e74000000000000000000000000600082015250565b6000612578601483611ebe565b915061258382612542565b602082019050919050565b600060208201905081810360008301526125a78161256b565b9050919050565b7f546f6b656e20616c7265616479207472616e7366657272656400000000000000600082015250565b60006125e4601983611ebe565b91506125ef826125ae565b602082019050919050565b60006020820190508181036000830152612613816125d7565b9050919050565b7f4e487b7100000000000000000000000000000000000000000000000000000000600052601160045260246000fd5b600061265482611f65565b91507fffffffffffffffffffffffffffffffffffffffffffffffffffffffffffffffff82036126865761268561261a565b5b600182019050919050565b60006060820190506126a66000830186611ffa565b6126b36020830185612090565b6126c06040830184611ffa565b949350505050565b600081905092915050565b60006126de82611eb3565b6126e881856126c8565b93506126f8818560208601611ecf565b80840191505092915050565b600061271082856126d3565b915061271c82846126d3565b91508190509392505050565b600081519050919050565b600082825260208201905092915050565b600061274f82612728565b6127598185612733565b9350612769818560208601611ecf565b61277281611ef9565b840191505092915050565b60006080820190506127926000830187611ffa565b61279f6020830186611ffa565b6127ac6040830185612090565b81810360608301526127be8184612744565b905095945050505050565b6000815190506127d881611e24565b92915050565b6000602082840312156127f4576127f3611dee565b5b6000612802848285016127c9565b91505092915050565b60006040820190506128206000830185611ffa565b61282d6020830184612090565b9392505050565b7f4e487b7100000000000000000000000000000000000000000000000000000000600052601260045260246000fdfea2646970667358221220c779a15e49d3e0dd0ea52bb831ab503eaa4a4f0d33128aa861a99b14176b4d2b64736f6c63430008180033",
  "linkReferences": {},
  "deployedLinkReferences": {}
}