{
  "_format": "hh-sol-artifact-1",
  "contractName": "MyCharacterNFT",
  "sourceName": "contracts/NFTCharacter.sol",
  "abi": [
    {
      "inputs": [
        {
          "internalType": "string[]",
          "name": "uris",
          "type": "string[]"
        }
      ],
      "stateMutability": "nonpayable",
      "type": "constructor"
    },
    {
      "inputs": [
        {
          "internalType": "address",
          "name": "sender",
          "type": "address"
        },
        {
          "internalType": "uint256",
          "name": "tokenId",
          "type": "uint256"
        },
        {
          "internalType": "address",
          "name": "owner",
          "type": "address"
        }
      ],
      "name": "ERC721IncorrectOwner",
      "type": "error"
    },
    {
      "inputs": [
        {
          "internalType": "address",
          "name": "operator",
          "type": "address"
        },
        {
          "internalType": "uint256",
          "name": "tokenId",
          "type": "uint256"
        }
      ],
      "name": "ERC721InsufficientApproval",
      "type": "error"
    },
    {
      "inputs": [
        {
          "internalType": "address",
          "name": "approver",
          "type": "address"
        }
      ],
      "name": "ERC721InvalidApprover",
      "type": "error"
    },
    {
      "inputs": [
        {
          "internalType": "address",
          "name": "operator",
          "type": "address"
        }
      ],
      "name": "ERC721InvalidOperator",
      "type": "error"
    },
    {
      "inputs": [
        {
          "internalType": "address",
          "name": "owner",
          "type": "address"
        }
      ],
      "name": "ERC721InvalidOwner",
      "type": "error"
    },
    {
      "inputs": [
        {
          "internalType": "address",
          "name": "receiver",
          "type": "address"
        }
      ],
      "name": "ERC721InvalidReceiver",
      "type": "error"
    },
    {
      "inputs": [
        {
          "internalType": "address",
          "name": "sender",
          "type": "address"
        }
      ],
      "name": "ERC721InvalidSender",
      "type": "error"
    },
    {
      "inputs": [
        {
          "internalType": "uint256",
          "name": "tokenId",
          "type": "uint256"
        }
      ],
      "name": "ERC721NonexistentToken",
      "type": "error"
    },
    {
      "inputs": [
        {
          "internalType": "address",
          "name": "owner",
          "type": "address"
        }
      ],
      "name": "OwnableInvalidOwner",
      "type": "error"
    },
    {
      "inputs": [
        {
          "internalType": "address",
          "name": "account",
          "type": "address"
        }
      ],
      "name": "OwnableUnauthorizedAccount",
      "type": "error"
    },
    {
      "anonymous": false,
      "inputs": [
        {
          "indexed": true,
          "internalType": "address",
          "name": "owner",
          "type": "address"
        },
        {
          "indexed": true,
          "internalType": "address",
          "name": "approved",
          "type": "address"
        },
        {
          "indexed": true,
          "internalType": "uint256",
          "name": "tokenId",
          "type": "uint256"
        }
      ],
      "name": "Approval",
      "type": "event"
    },
    {
      "anonymous": false,
      "inputs": [
        {
          "indexed": true,
          "internalType": "address",
          "name": "owner",
          "type": "address"
        },
        {
          "indexed": true,
          "internalType": "address",
          "name": "operator",
          "type": "address"
        },
        {
          "indexed": false,
          "internalType": "bool",
          "name": "approved",
          "type": "bool"
        }
      ],
      "name": "ApprovalForAll",
      "type": "event"
    },
    {
      "anonymous": false,
      "inputs": [
        {
          "indexed": false,
          "internalType": "uint256",
          "name": "_fromTokenId",
          "type": "uint256"
        },
        {
          "indexed": false,
          "internalType": "uint256",
          "name": "_toTokenId",
          "type": "uint256"
        }
      ],
      "name": "BatchMetadataUpdate",
      "type": "event"
    },
    {
      "anonymous": false,
      "inputs": [
        {
          "indexed": false,
          "internalType": "uint256",
          "name": "_tokenId",
          "type": "uint256"
        }
      ],
      "name": "MetadataUpdate",
      "type": "event"
    },
    {
      "anonymous": false,
      "inputs": [
        {
          "indexed": true,
          "internalType": "address",
          "name": "previousOwner",
          "type": "address"
        },
        {
          "indexed": true,
          "internalType": "address",
          "name": "newOwner",
          "type": "address"
        }
      ],
      "name": "OwnershipTransferred",
      "type": "event"
    },
    {
      "anonymous": false,
      "inputs": [
        {
          "indexed": true,
          "internalType": "address",
          "name": "from",
          "type": "address"
        },
        {
          "indexed": true,
          "internalType": "address",
          "name": "to",
          "type": "address"
        },
        {
          "indexed": true,
          "internalType": "uint256",
          "name": "tokenId",
          "type": "uint256"
        }
      ],
      "name": "Transfer",
      "type": "event"
    },
    {
      "inputs": [],
      "name": "MAX_SUPPLY",
      "outputs": [
        {
          "internalType": "uint256",
          "name": "",
          "type": "uint256"
        }
      ],
      "stateMutability": "view",
      "type": "function"
    },
    {
      "inputs": [
        {
          "internalType": "address",
          "name": "to",
          "type": "address"
        },
        {
          "internalType": "uint256",
          "name": "tokenId",
          "type": "uint256"
        }
      ],
      "name": "approve",
      "outputs": [],
      "stateMutability": "nonpayable",
      "type": "function"
    },
    {
      "inputs": [
        {
          "internalType": "address",
          "name": "owner",
          "type": "address"
        }
      ],
      "name": "balanceOf",
      "outputs": [
        {
          "internalType": "uint256",
          "name": "",
          "type": "uint256"
        }
      ],
      "stateMutability": "view",
      "type": "function"
    },
    {
      "inputs": [
        {
          "internalType": "uint256",
          "name": "tokenId",
          "type": "uint256"
        }
      ],
      "name": "getApproved",
      "outputs": [
        {
          "internalType": "address",
          "name": "",
          "type": "address"
        }
      ],
      "stateMutability": "view",
      "type": "function"
    },
    {
      "inputs": [
        {
          "internalType": "address",
          "name": "owner",
          "type": "address"
        },
        {
          "internalType": "address",
          "name": "operator",
          "type": "address"
        }
      ],
      "name": "isApprovedForAll",
      "outputs": [
        {
          "internalType": "bool",
          "name": "",
          "type": "bool"
        }
      ],
      "stateMutability": "view",
      "type": "function"
    },
    {
      "inputs": [],
      "name": "mint",
      "outputs": [],
      "stateMutability": "payable",
      "type": "function"
    },
    {
      "inputs": [],
      "name": "mintPrice",
      "outputs": [
        {
          "internalType": "uint256",
          "name": "",
          "type": "uint256"
        }
      ],
      "stateMutability": "view",
      "type": "function"
    },
    {
      "inputs": [],
      "name": "name",
      "outputs": [
        {
          "internalType": "string",
          "name": "",
          "type": "string"
        }
      ],
      "stateMutability": "view",
      "type": "function"
    },
    {
      "inputs": [],
      "name": "owner",
      "outputs": [
        {
          "internalType": "address",
          "name": "",
          "type": "address"
        }
      ],
      "stateMutability": "view",
      "type": "function"
    },
    {
      "inputs": [
        {
          "internalType": "uint256",
          "name": "tokenId",
          "type": "uint256"
        }
      ],
      "name": "ownerOf",
      "outputs": [
        {
          "internalType": "address",
          "name": "",
          "type": "address"
        }
      ],
      "stateMutability": "view",
      "type": "function"
    },
    {
      "inputs": [],
      "name": "renounceOwnership",
      "outputs": [],
      "stateMutability": "nonpayable",
      "type": "function"
    },
    {
      "inputs": [
        {
          "internalType": "address",
          "name": "from",
          "type": "address"
        },
        {
          "internalType": "address",
          "name": "to",
          "type": "address"
        },
        {
          "internalType": "uint256",
          "name": "tokenId",
          "type": "uint256"
        }
      ],
      "name": "safeTransferFrom",
      "outputs": [],
      "stateMutability": "nonpayable",
      "type": "function"
    },
    {
      "inputs": [
        {
          "internalType": "address",
          "name": "from",
          "type": "address"
        },
        {
          "internalType": "address",
          "name": "to",
          "type": "address"
        },
        {
          "internalType": "uint256",
          "name": "tokenId",
          "type": "uint256"
        },
        {
          "internalType": "bytes",
          "name": "data",
          "type": "bytes"
        }
      ],
      "name": "safeTransferFrom",
      "outputs": [],
      "stateMutability": "nonpayable",
      "type": "function"
    },
    {
      "inputs": [
        {
          "internalType": "address",
          "name": "operator",
          "type": "address"
        },
        {
          "internalType": "bool",
          "name": "approved",
          "type": "bool"
        }
      ],
      "name": "setApprovalForAll",
      "outputs": [],
      "stateMutability": "nonpayable",
      "type": "function"
    },
    {
      "inputs": [
        {
          "internalType": "uint256",
          "name": "newPrice",
          "type": "uint256"
        }
      ],
      "name": "setMintPrice",
      "outputs": [],
      "stateMutability": "nonpayable",
      "type": "function"
    },
    {
      "inputs": [
        {
          "internalType": "bytes4",
          "name": "interfaceId",
          "type": "bytes4"
        }
      ],
      "name": "supportsInterface",
      "outputs": [
        {
          "internalType": "bool",
          "name": "",
          "type": "bool"
        }
      ],
      "stateMutability": "view",
      "type": "function"
    },
    {
      "inputs": [],
      "name": "symbol",
      "outputs": [
        {
          "internalType": "string",
          "name": "",
          "type": "string"
        }
      ],
      "stateMutability": "view",
      "type": "function"
    },
    {
      "inputs": [
        {
          "internalType": "uint256",
          "name": "tokenId",
          "type": "uint256"
        }
      ],
      "name": "tokenURI",
      "outputs": [
        {
          "internalType": "string",
          "name": "",
          "type": "string"
        }
      ],
      "stateMutability": "view",
      "type": "function"
    },
    {
      "inputs": [],
      "name": "totalMinted",
      "outputs": [
        {
          "internalType": "uint256",
          "name": "",
          "type": "uint256"
        }
      ],
      "stateMutability": "view",
      "type": "function"
    },
    {
      "inputs": [
        {
          "internalType": "address",
          "name": "from",
          "type": "address"
        },
        {
          "internalType": "address",
          "name": "to",
          "type": "address"
        },
        {
          "internalType": "uint256",
          "name": "tokenId",
          "type": "uint256"
        }
      ],
      "name": "transferFrom",
      "outputs": [],
      "stateMutability": "nonpayable",
      "type": "function"
    },
    {
      "inputs": [
        {
          "internalType": "address",
          "name": "newOwner",
          "type": "address"
        }
      ],
      "name": "transferOwnership",
      "outputs": [],
      "stateMutability": "nonpayable",
      "type": "function"
    }
  ],
  "bytecode": "0x60806040526000600855600160095566038d7ea4c68000600a553480156200002657600080fd5b5060405162003ea538038062003ea583398181016040528101906200004c919062001086565b336040518060400160405280600b81526020017f4d794368617261637465720000000000000000000000000000000000000000008152506040518060400160405280600481526020017f43484152000000000000000000000000000000000000000000000000000000008152508160009081620000ca919062001322565b508060019081620000dc919062001322565b505050600073ffffffffffffffffffffffffffffffffffffffff168173ffffffffffffffffffffffffffffffffffffffff1603620001545760006040517f1e4fbdf70000000000000000000000000000000000000000000000000000000081526004016200014b91906200144e565b60405180910390fd5b62000165816200024760201b60201c565b50600a815114620001ad576040517f08c379a0000000000000000000000000000000000000000000000000000000008152600401620001a490620014cc565b60405180910390fd5b60005b600a8110156200023f57620001da33600183620001ce91906200151d565b6200030d60201b60201c565b62000217600182620001ed91906200151d565b83838151811062000203576200020262001558565b5b60200260200101516200033360201b60201c565b600860008154809291906200022c9062001587565b91905055508080600101915050620001b0565b50506200176f565b6000600760009054906101000a900473ffffffffffffffffffffffffffffffffffffffff16905081600760006101000a81548173ffffffffffffffffffffffffffffffffffffffff021916908373ffffffffffffffffffffffffffffffffffffffff1602179055508173ffffffffffffffffffffffffffffffffffffffff168173ffffffffffffffffffffffffffffffffffffffff167f8be0079c531659141344cd1fd0a4f28419497f9722a3daafe3b4186f6b6457e060405160405180910390a35050565b6200032f8282604051806020016040528060008152506200039360201b60201c565b5050565b8060066000848152602001908152602001600020908162000355919062001322565b507ff8e1a15aba9398e019f0b49df1a4fde98ee17ae345cb5f6b5e2c27f5033e8ce782604051620003879190620015e5565b60405180910390a15050565b620003a58383620003cf60201b60201c565b620003ca620003b9620004d660201b60201c565b6000858585620004de60201b60201c565b505050565b600073ffffffffffffffffffffffffffffffffffffffff168273ffffffffffffffffffffffffffffffffffffffff1603620004445760006040517f64a0ae920000000000000000000000000000000000000000000000000000000081526004016200043b91906200144e565b60405180910390fd5b60006200045a838360006200069e60201b60201c565b9050600073ffffffffffffffffffffffffffffffffffffffff168173ffffffffffffffffffffffffffffffffffffffff1614620004d15760006040517f73c6ac6e000000000000000000000000000000000000000000000000000000008152600401620004c891906200144e565b60405180910390fd5b505050565b600033905090565b60008373ffffffffffffffffffffffffffffffffffffffff163b111562000697578273ffffffffffffffffffffffffffffffffffffffff1663150b7a02868685856040518563ffffffff1660e01b81526004016200054094939291906200165f565b6020604051808303816000875af19250505080156200057f57506040513d601f19601f820116820180604052508101906200057c919062001710565b60015b62000609573d8060008114620005b2576040519150601f19603f3d011682016040523d82523d6000602084013e620005b7565b606091505b5060008151036200060157836040517f64a0ae92000000000000000000000000000000000000000000000000000000008152600401620005f891906200144e565b60405180910390fd5b805181602001fd5b63150b7a0260e01b7bffffffffffffffffffffffffffffffffffffffffffffffffffffffff1916817bffffffffffffffffffffffffffffffffffffffffffffffffffffffff1916146200069557836040517f64a0ae920000000000000000000000000000000000000000000000000000000081526004016200068c91906200144e565b60405180910390fd5b505b5050505050565b600080620006b284620008d360201b60201c565b9050600073ffffffffffffffffffffffffffffffffffffffff168373ffffffffffffffffffffffffffffffffffffffff1614620006fd57620006fc8184866200091060201b60201c565b5b600073ffffffffffffffffffffffffffffffffffffffff168173ffffffffffffffffffffffffffffffffffffffff1614620007975762000748600085600080620009e260201b60201c565b6001600360008373ffffffffffffffffffffffffffffffffffffffff1673ffffffffffffffffffffffffffffffffffffffff168152602001908152602001600020600082825403925050819055505b600073ffffffffffffffffffffffffffffffffffffffff168573ffffffffffffffffffffffffffffffffffffffff16146200081b576001600360008773ffffffffffffffffffffffffffffffffffffffff1673ffffffffffffffffffffffffffffffffffffffff168152602001908152602001600020600082825401925050819055505b846002600086815260200190815260200160002060006101000a81548173ffffffffffffffffffffffffffffffffffffffff021916908373ffffffffffffffffffffffffffffffffffffffff160217905550838573ffffffffffffffffffffffffffffffffffffffff168273ffffffffffffffffffffffffffffffffffffffff167fddf252ad1be2c89b69c2b068fc378daa952ba7f163c4a11628f55a4df523b3ef60405160405180910390a4809150509392505050565b60006002600083815260200190815260200160002060009054906101000a900473ffffffffffffffffffffffffffffffffffffffff169050919050565b6200092383838362000bbf60201b60201c565b620009dd57600073ffffffffffffffffffffffffffffffffffffffff168373ffffffffffffffffffffffffffffffffffffffff16036200099c57806040517f7e273289000000000000000000000000000000000000000000000000000000008152600401620009939190620015e5565b60405180910390fd5b81816040517f177e802f000000000000000000000000000000000000000000000000000000008152600401620009d492919062001742565b60405180910390fd5b505050565b808062000a1c5750600073ffffffffffffffffffffffffffffffffffffffff168273ffffffffffffffffffffffffffffffffffffffff1614155b1562000b6757600062000a358462000c9360201b60201c565b9050600073ffffffffffffffffffffffffffffffffffffffff168373ffffffffffffffffffffffffffffffffffffffff161415801562000aa157508273ffffffffffffffffffffffffffffffffffffffff168173ffffffffffffffffffffffffffffffffffffffff1614155b801562000abd575062000abb818462000d2660201b60201c565b155b1562000b0257826040517fa9fbf51f00000000000000000000000000000000000000000000000000000000815260040162000af991906200144e565b60405180910390fd5b811562000b6557838573ffffffffffffffffffffffffffffffffffffffff168273ffffffffffffffffffffffffffffffffffffffff167f8c5be1e5ebec7d5bd14f71427d1e84f3dd0314c0f7b2291e5b200ac8c7c3b92560405160405180910390a45b505b836004600085815260200190815260200160002060006101000a81548173ffffffffffffffffffffffffffffffffffffffff021916908373ffffffffffffffffffffffffffffffffffffffff16021790555050505050565b60008073ffffffffffffffffffffffffffffffffffffffff168373ffffffffffffffffffffffffffffffffffffffff161415801562000c8a57508273ffffffffffffffffffffffffffffffffffffffff168473ffffffffffffffffffffffffffffffffffffffff16148062000c42575062000c41848462000d2660201b60201c565b5b8062000c8957508273ffffffffffffffffffffffffffffffffffffffff1662000c718362000dba60201b60201c565b73ffffffffffffffffffffffffffffffffffffffff16145b5b90509392505050565b60008062000ca783620008d360201b60201c565b9050600073ffffffffffffffffffffffffffffffffffffffff168173ffffffffffffffffffffffffffffffffffffffff160362000d1d57826040517f7e27328900000000000000000000000000000000000000000000000000000000815260040162000d149190620015e5565b60405180910390fd5b80915050919050565b6000600560008473ffffffffffffffffffffffffffffffffffffffff1673ffffffffffffffffffffffffffffffffffffffff16815260200190815260200160002060008373ffffffffffffffffffffffffffffffffffffffff1673ffffffffffffffffffffffffffffffffffffffff16815260200190815260200160002060009054906101000a900460ff16905092915050565b60006004600083815260200190815260200160002060009054906101000a900473ffffffffffffffffffffffffffffffffffffffff169050919050565b6000604051905090565b600080fd5b600080fd5b600080fd5b6000601f19601f8301169050919050565b7f4e487b7100000000000000000000000000000000000000000000000000000000600052604160045260246000fd5b62000e5b8262000e10565b810181811067ffffffffffffffff8211171562000e7d5762000e7c62000e21565b5b80604052505050565b600062000e9262000df7565b905062000ea0828262000e50565b919050565b600067ffffffffffffffff82111562000ec35762000ec262000e21565b5b602082029050602081019050919050565b600080fd5b600080fd5b600067ffffffffffffffff82111562000efc5762000efb62000e21565b5b62000f078262000e10565b9050602081019050919050565b60005b8381101562000f3457808201518184015260208101905062000f17565b60008484015250505050565b600062000f5762000f518462000ede565b62000e86565b90508281526020810184848401111562000f765762000f7562000ed9565b5b62000f8384828562000f14565b509392505050565b600082601f83011262000fa35762000fa262000e0b565b5b815162000fb584826020860162000f40565b91505092915050565b600062000fd562000fcf8462000ea5565b62000e86565b9050808382526020820190506020840283018581111562000ffb5762000ffa62000ed4565b5b835b818110156200104957805167ffffffffffffffff81111562001024576200102362000e0b565b5b80860162001033898262000f8b565b8552602085019450505060208101905062000ffd565b5050509392505050565b600082601f8301126200106b576200106a62000e0b565b5b81516200107d84826020860162000fbe565b91505092915050565b6000602082840312156200109f576200109e62000e01565b5b600082015167ffffffffffffffff811115620010c057620010bf62000e06565b5b620010ce8482850162001053565b91505092915050565b600081519050919050565b7f4e487b7100000000000000000000000000000000000000000000000000000000600052602260045260246000fd5b600060028204905060018216806200112a57607f821691505b60208210810362001140576200113f620010e2565b5b50919050565b60008190508160005260206000209050919050565b60006020601f8301049050919050565b600082821b905092915050565b600060088302620011aa7fffffffffffffffffffffffffffffffffffffffffffffffffffffffffffffffff826200116b565b620011b686836200116b565b95508019841693508086168417925050509392505050565b6000819050919050565b6000819050919050565b600062001203620011fd620011f784620011ce565b620011d8565b620011ce565b9050919050565b6000819050919050565b6200121f83620011e2565b620012376200122e826200120a565b84845462001178565b825550505050565b600090565b6200124e6200123f565b6200125b81848462001214565b505050565b5b8181101562001283576200127760008262001244565b60018101905062001261565b5050565b601f821115620012d2576200129c8162001146565b620012a7846200115b565b81016020851015620012b7578190505b620012cf620012c6856200115b565b83018262001260565b50505b505050565b600082821c905092915050565b6000620012f760001984600802620012d7565b1980831691505092915050565b6000620013128383620012e4565b9150826002028217905092915050565b6200132d82620010d7565b67ffffffffffffffff81111562001349576200134862000e21565b5b62001355825462001111565b6200136282828562001287565b600060209050601f8311600181146200139a576000841562001385578287015190505b62001391858262001304565b86555062001401565b601f198416620013aa8662001146565b60005b82811015620013d457848901518255600182019150602085019450602081019050620013ad565b86831015620013f45784890151620013f0601f891682620012e4565b8355505b6001600288020188555050505b505050505050565b600073ffffffffffffffffffffffffffffffffffffffff82169050919050565b6000620014368262001409565b9050919050565b620014488162001429565b82525050565b60006020820190506200146560008301846200143d565b92915050565b600082825260208201905092915050565b7f4e6565642065786163746c792031302055524973000000000000000000000000600082015250565b6000620014b46014836200146b565b9150620014c1826200147c565b602082019050919050565b60006020820190508181036000830152620014e781620014a5565b9050919050565b7f4e487b7100000000000000000000000000000000000000000000000000000000600052601160045260246000fd5b60006200152a82620011ce565b91506200153783620011ce565b9250828201905080821115620015525762001551620014ee565b5b92915050565b7f4e487b7100000000000000000000000000000000000000000000000000000000600052603260045260246000fd5b60006200159482620011ce565b91507fffffffffffffffffffffffffffffffffffffffffffffffffffffffffffffffff8203620015c957620015c8620014ee565b5b600182019050919050565b620015df81620011ce565b82525050565b6000602082019050620015fc6000830184620015d4565b92915050565b600081519050919050565b600082825260208201905092915050565b60006200162b8262001602565b6200163781856200160d565b93506200164981856020860162000f14565b620016548162000e10565b840191505092915050565b60006080820190506200167660008301876200143d565b6200168560208301866200143d565b620016946040830185620015d4565b8181036060830152620016a881846200161e565b905095945050505050565b60007fffffffff0000000000000000000000000000000000000000000000000000000082169050919050565b620016ea81620016b3565b8114620016f657600080fd5b50565b6000815190506200170a81620016df565b92915050565b60006020828403121562001729576200172862000e01565b5b60006200173984828501620016f9565b91505092915050565b60006040820190506200175960008301856200143d565b620017686020830184620015d4565b9392505050565b612726806200177f6000396000f3fe60806040526004361061012a5760003560e01c806370a08231116100ab578063a2309ff81161006f578063a2309ff8146103bf578063b88d4fde146103ea578063c87b56dd14610413578063e985e9c514610450578063f2fde38b1461048d578063f4a0a528146104b65761012a565b806370a08231146102ec578063715018a6146103295780638da5cb5b1461034057806395d89b411461036b578063a22cb465146103965761012a565b806323b872dd116100f257806323b872dd1461020757806332cb6b0c1461023057806342842e0e1461025b5780636352211e146102845780636817c76c146102c15761012a565b806301ffc9a71461012f57806306fdde031461016c578063081812fc14610197578063095ea7b3146101d45780631249c58b146101fd575b600080fd5b34801561013b57600080fd5b5061015660048036038101906101519190611cdd565b6104df565b6040516101639190611d25565b60405180910390f35b34801561017857600080fd5b50610181610540565b60405161018e9190611dd0565b60405180910390f35b3480156101a357600080fd5b506101be60048036038101906101b99190611e28565b6105d2565b6040516101cb9190611e96565b60405180910390f35b3480156101e057600080fd5b506101fb60048036038101906101f69190611edd565b6105ee565b005b610205610604565b005b34801561021357600080fd5b5061022e60048036038101906102299190611f1d565b61084e565b005b34801561023c57600080fd5b50610245610950565b6040516102529190611f7f565b60405180910390f35b34801561026757600080fd5b50610282600480360381019061027d9190611f1d565b610955565b005b34801561029057600080fd5b506102ab60048036038101906102a69190611e28565b610975565b6040516102b89190611e96565b60405180910390f35b3480156102cd57600080fd5b506102d6610987565b6040516102e39190611f7f565b60405180910390f35b3480156102f857600080fd5b50610313600480360381019061030e9190611f9a565b61098d565b6040516103209190611f7f565b60405180910390f35b34801561033557600080fd5b5061033e610a47565b005b34801561034c57600080fd5b50610355610a5b565b6040516103629190611e96565b60405180910390f35b34801561037757600080fd5b50610380610a85565b60405161038d9190611dd0565b60405180910390f35b3480156103a257600080fd5b506103bd60048036038101906103b89190611ff3565b610b17565b005b3480156103cb57600080fd5b506103d4610b2d565b6040516103e19190611f7f565b60405180910390f35b3480156103f657600080fd5b50610411600480360381019061040c9190612168565b610b33565b005b34801561041f57600080fd5b5061043a60048036038101906104359190611e28565b610b58565b6040516104479190611dd0565b60405180910390f35b34801561045c57600080fd5b50610477600480360381019061047291906121eb565b610c6b565b6040516104849190611d25565b60405180910390f35b34801561049957600080fd5b506104b460048036038101906104af9190611f9a565b610cff565b005b3480156104c257600080fd5b506104dd60048036038101906104d89190611e28565b610d85565b005b6000634906490660e01b7bffffffffffffffffffffffffffffffffffffffffffffffffffffffff1916827bffffffffffffffffffffffffffffffffffffffffffffffffffffffff19161480610539575061053882610d97565b5b9050919050565b60606000805461054f9061225a565b80601f016020809104026020016040519081016040528092919081815260200182805461057b9061225a565b80156105c85780601f1061059d576101008083540402835291602001916105c8565b820191906000526020600020905b8154815290600101906020018083116105ab57829003601f168201915b5050505050905090565b60006105dd82610e79565b506105e782610f01565b9050919050565b61060082826105fb610f3e565b610f46565b5050565b61060c610a5b565b73ffffffffffffffffffffffffffffffffffffffff163373ffffffffffffffffffffffffffffffffffffffff1603610679576040517f08c379a0000000000000000000000000000000000000000000000000000000008152600401610670906122d7565b60405180910390fd5b60006106843361098d565b146106c4576040517f08c379a00000000000000000000000000000000000000000000000000000000081526004016106bb90612343565b60405180910390fd5b600a600954111561070a576040517f08c379a0000000000000000000000000000000000000000000000000000000008152600401610701906123af565b60405180910390fd5b600a5434101561074f576040517f08c379a00000000000000000000000000000000000000000000000000000000081526004016107469061241b565b60405180910390fd5b6000600954905061075e610a5b565b73ffffffffffffffffffffffffffffffffffffffff1661077d82610975565b73ffffffffffffffffffffffffffffffffffffffff16146107d3576040517f08c379a00000000000000000000000000000000000000000000000000000000081526004016107ca90612487565b60405180910390fd5b6107e56107de610a5b565b3383610955565b600960008154809291906107f8906124d6565b9190505550610805610a5b565b73ffffffffffffffffffffffffffffffffffffffff166108fc349081150290604051600060405180830381858888f1935050505015801561084a573d6000803e3d6000fd5b5050565b600073ffffffffffffffffffffffffffffffffffffffff168273ffffffffffffffffffffffffffffffffffffffff16036108c05760006040517f64a0ae920000000000000000000000000000000000000000000000000000000081526004016108b79190611e96565b60405180910390fd5b60006108d483836108cf610f3e565b610f58565b90508373ffffffffffffffffffffffffffffffffffffffff168173ffffffffffffffffffffffffffffffffffffffff161461094a578382826040517f64283d7b0000000000000000000000000000000000000000000000000000000081526004016109419392919061251e565b60405180910390fd5b50505050565b600a81565b61097083838360405180602001604052806000815250610b33565b505050565b600061098082610e79565b9050919050565b600a5481565b60008073ffffffffffffffffffffffffffffffffffffffff168273ffffffffffffffffffffffffffffffffffffffff1603610a005760006040517f89c62b640000000000000000000000000000000000000000000000000000000081526004016109f79190611e96565b60405180910390fd5b600360008373ffffffffffffffffffffffffffffffffffffffff1673ffffffffffffffffffffffffffffffffffffffff168152602001908152602001600020549050919050565b610a4f611172565b610a5960006111f9565b565b6000600760009054906101000a900473ffffffffffffffffffffffffffffffffffffffff16905090565b606060018054610a949061225a565b80601f0160208091040260200160405190810160405280929190818152602001828054610ac09061225a565b8015610b0d5780601f10610ae257610100808354040283529160200191610b0d565b820191906000526020600020905b815481529060010190602001808311610af057829003601f168201915b5050505050905090565b610b29610b22610f3e565b83836112bf565b5050565b60085481565b610b3e84848461084e565b610b52610b49610f3e565b8585858561142e565b50505050565b6060610b6382610e79565b506000600660008481526020019081526020016000208054610b849061225a565b80601f0160208091040260200160405190810160405280929190818152602001828054610bb09061225a565b8015610bfd5780601f10610bd257610100808354040283529160200191610bfd565b820191906000526020600020905b815481529060010190602001808311610be057829003601f168201915b505050505090506000610c0e6115df565b90506000815103610c23578192505050610c66565b600082511115610c58578082604051602001610c40929190612591565b60405160208183030381529060405292505050610c66565b610c61846115f6565b925050505b919050565b6000600560008473ffffffffffffffffffffffffffffffffffffffff1673ffffffffffffffffffffffffffffffffffffffff16815260200190815260200160002060008373ffffffffffffffffffffffffffffffffffffffff1673ffffffffffffffffffffffffffffffffffffffff16815260200190815260200160002060009054906101000a900460ff16905092915050565b610d07611172565b600073ffffffffffffffffffffffffffffffffffffffff168173ffffffffffffffffffffffffffffffffffffffff1603610d795760006040517f1e4fbdf7000000000000000000000000000000000000000000000000000000008152600401610d709190611e96565b60405180910390fd5b610d82816111f9565b50565b610d8d611172565b80600a8190555050565b60007f80ac58cd000000000000000000000000000000000000000000000000000000007bffffffffffffffffffffffffffffffffffffffffffffffffffffffff1916827bffffffffffffffffffffffffffffffffffffffffffffffffffffffff19161480610e6257507f5b5e139f000000000000000000000000000000000000000000000000000000007bffffffffffffffffffffffffffffffffffffffffffffffffffffffff1916827bffffffffffffffffffffffffffffffffffffffffffffffffffffffff1916145b80610e725750610e718261165f565b5b9050919050565b600080610e85836116c9565b9050600073ffffffffffffffffffffffffffffffffffffffff168173ffffffffffffffffffffffffffffffffffffffff1603610ef857826040517f7e273289000000000000000000000000000000000000000000000000000000008152600401610eef9190611f7f565b60405180910390fd5b80915050919050565b60006004600083815260200190815260200160002060009054906101000a900473ffffffffffffffffffffffffffffffffffffffff169050919050565b600033905090565b610f538383836001611706565b505050565b600080610f64846116c9565b9050600073ffffffffffffffffffffffffffffffffffffffff168373ffffffffffffffffffffffffffffffffffffffff1614610fa657610fa58184866118cb565b5b600073ffffffffffffffffffffffffffffffffffffffff168173ffffffffffffffffffffffffffffffffffffffff161461103757610fe8600085600080611706565b6001600360008373ffffffffffffffffffffffffffffffffffffffff1673ffffffffffffffffffffffffffffffffffffffff168152602001908152602001600020600082825403925050819055505b600073ffffffffffffffffffffffffffffffffffffffff168573ffffffffffffffffffffffffffffffffffffffff16146110ba576001600360008773ffffffffffffffffffffffffffffffffffffffff1673ffffffffffffffffffffffffffffffffffffffff168152602001908152602001600020600082825401925050819055505b846002600086815260200190815260200160002060006101000a81548173ffffffffffffffffffffffffffffffffffffffff021916908373ffffffffffffffffffffffffffffffffffffffff160217905550838573ffffffffffffffffffffffffffffffffffffffff168273ffffffffffffffffffffffffffffffffffffffff167fddf252ad1be2c89b69c2b068fc378daa952ba7f163c4a11628f55a4df523b3ef60405160405180910390a4809150509392505050565b61117a610f3e565b73ffffffffffffffffffffffffffffffffffffffff16611198610a5b565b73ffffffffffffffffffffffffffffffffffffffff16146111f7576111bb610f3e565b6040517f118cdaa70000000000000000000000000000000000000000000000000000000081526004016111ee9190611e96565b60405180910390fd5b565b6000600760009054906101000a900473ffffffffffffffffffffffffffffffffffffffff16905081600760006101000a81548173ffffffffffffffffffffffffffffffffffffffff021916908373ffffffffffffffffffffffffffffffffffffffff1602179055508173ffffffffffffffffffffffffffffffffffffffff168173ffffffffffffffffffffffffffffffffffffffff167f8be0079c531659141344cd1fd0a4f28419497f9722a3daafe3b4186f6b6457e060405160405180910390a35050565b600073ffffffffffffffffffffffffffffffffffffffff168273ffffffffffffffffffffffffffffffffffffffff160361133057816040517f5b08ba180000000000000000000000000000000000000000000000000000000081526004016113279190611e96565b60405180910390fd5b80600560008573ffffffffffffffffffffffffffffffffffffffff1673ffffffffffffffffffffffffffffffffffffffff16815260200190815260200160002060008473ffffffffffffffffffffffffffffffffffffffff1673ffffffffffffffffffffffffffffffffffffffff16815260200190815260200160002060006101000a81548160ff0219169083151502179055508173ffffffffffffffffffffffffffffffffffffffff168373ffffffffffffffffffffffffffffffffffffffff167f17307eab39ab6107e8899845ad3d59bd9653f200f220920489ca2b5937696c31836040516114219190611d25565b60405180910390a3505050565b60008373ffffffffffffffffffffffffffffffffffffffff163b11156115d8578273ffffffffffffffffffffffffffffffffffffffff1663150b7a02868685856040518563ffffffff1660e01b815260040161148d949392919061260a565b6020604051808303816000875af19250505080156114c957506040513d601f19601f820116820180604052508101906114c6919061266b565b60015b61154d573d80600081146114f9576040519150601f19603f3d011682016040523d82523d6000602084013e6114fe565b606091505b50600081510361154557836040517f64a0ae9200000000000000000000000000000000000000000000000000000000815260040161153c9190611e96565b60405180910390fd5b805181602001fd5b63150b7a0260e01b7bffffffffffffffffffffffffffffffffffffffffffffffffffffffff1916817bffffffffffffffffffffffffffffffffffffffffffffffffffffffff1916146115d657836040517f64a0ae920000000000000000000000000000000000000000000000000000000081526004016115cd9190611e96565b60405180910390fd5b505b5050505050565b606060405180602001604052806000815250905090565b606061160182610e79565b50600061160c6115df565b9050600081511161162c5760405180602001604052806000815250611657565b806116368461198f565b604051602001611647929190612591565b6040516020818303038152906040525b915050919050565b60007f01ffc9a7000000000000000000000000000000000000000000000000000000007bffffffffffffffffffffffffffffffffffffffffffffffffffffffff1916827bffffffffffffffffffffffffffffffffffffffffffffffffffffffff1916149050919050565b60006002600083815260200190815260200160002060009054906101000a900473ffffffffffffffffffffffffffffffffffffffff169050919050565b808061173f5750600073ffffffffffffffffffffffffffffffffffffffff168273ffffffffffffffffffffffffffffffffffffffff1614155b1561187357600061174f84610e79565b9050600073ffffffffffffffffffffffffffffffffffffffff168373ffffffffffffffffffffffffffffffffffffffff16141580156117ba57508273ffffffffffffffffffffffffffffffffffffffff168173ffffffffffffffffffffffffffffffffffffffff1614155b80156117cd57506117cb8184610c6b565b155b1561180f57826040517fa9fbf51f0000000000000000000000000000000000000000000000000000000081526004016118069190611e96565b60405180910390fd5b811561187157838573ffffffffffffffffffffffffffffffffffffffff168273ffffffffffffffffffffffffffffffffffffffff167f8c5be1e5ebec7d5bd14f71427d1e84f3dd0314c0f7b2291e5b200ac8c7c3b92560405160405180910390a45b505b836004600085815260200190815260200160002060006101000a81548173ffffffffffffffffffffffffffffffffffffffff021916908373ffffffffffffffffffffffffffffffffffffffff16021790555050505050565b6118d6838383611a5d565b61198a57600073ffffffffffffffffffffffffffffffffffffffff168373ffffffffffffffffffffffffffffffffffffffff160361194b57806040517f7e2732890000000000000000000000000000000000000000000000000000000081526004016119429190611f7f565b60405180910390fd5b81816040517f177e802f000000000000000000000000000000000000000000000000000000008152600401611981929190612698565b60405180910390fd5b505050565b60606000600161199e84611b1e565b01905060008167ffffffffffffffff8111156119bd576119bc61203d565b5b6040519080825280601f01601f1916602001820160405280156119ef5781602001600182028036833780820191505090505b509050600082602001820190505b600115611a52578080600190039150507f3031323334353637383961626364656600000000000000000000000000000000600a86061a8153600a8581611a4657611a456126c1565b5b049450600085036119fd575b819350505050919050565b60008073ffffffffffffffffffffffffffffffffffffffff168373ffffffffffffffffffffffffffffffffffffffff1614158015611b1557508273ffffffffffffffffffffffffffffffffffffffff168473ffffffffffffffffffffffffffffffffffffffff161480611ad65750611ad58484610c6b565b5b80611b1457508273ffffffffffffffffffffffffffffffffffffffff16611afc83610f01565b73ffffffffffffffffffffffffffffffffffffffff16145b5b90509392505050565b600080600090507a184f03e93ff9f4daa797ed6e38ed64bf6a1f0100000000000000008310611b7c577a184f03e93ff9f4daa797ed6e38ed64bf6a1f0100000000000000008381611b7257611b716126c1565b5b0492506040810190505b6d04ee2d6d415b85acef81000000008310611bb9576d04ee2d6d415b85acef81000000008381611baf57611bae6126c1565b5b0492506020810190505b662386f26fc100008310611be857662386f26fc100008381611bde57611bdd6126c1565b5b0492506010810190505b6305f5e1008310611c11576305f5e1008381611c0757611c066126c1565b5b0492506008810190505b6127108310611c36576127108381611c2c57611c2b6126c1565b5b0492506004810190505b60648310611c595760648381611c4f57611c4e6126c1565b5b0492506002810190505b600a8310611c68576001810190505b80915050919050565b6000604051905090565b600080fd5b600080fd5b60007fffffffff0000000000000000000000000000000000000000000000000000000082169050919050565b611cba81611c85565b8114611cc557600080fd5b50565b600081359050611cd781611cb1565b92915050565b600060208284031215611cf357611cf2611c7b565b5b6000611d0184828501611cc8565b91505092915050565b60008115159050919050565b611d1f81611d0a565b82525050565b6000602082019050611d3a6000830184611d16565b92915050565b600081519050919050565b600082825260208201905092915050565b60005b83811015611d7a578082015181840152602081019050611d5f565b60008484015250505050565b6000601f19601f8301169050919050565b6000611da282611d40565b611dac8185611d4b565b9350611dbc818560208601611d5c565b611dc581611d86565b840191505092915050565b60006020820190508181036000830152611dea8184611d97565b905092915050565b6000819050919050565b611e0581611df2565b8114611e1057600080fd5b50565b600081359050611e2281611dfc565b92915050565b600060208284031215611e3e57611e3d611c7b565b5b6000611e4c84828501611e13565b91505092915050565b600073ffffffffffffffffffffffffffffffffffffffff82169050919050565b6000611e8082611e55565b9050919050565b611e9081611e75565b82525050565b6000602082019050611eab6000830184611e87565b92915050565b611eba81611e75565b8114611ec557600080fd5b50565b600081359050611ed781611eb1565b92915050565b60008060408385031215611ef457611ef3611c7b565b5b6000611f0285828601611ec8565b9250506020611f1385828601611e13565b9150509250929050565b600080600060608486031215611f3657611f35611c7b565b5b6000611f4486828701611ec8565b9350506020611f5586828701611ec8565b9250506040611f6686828701611e13565b9150509250925092565b611f7981611df2565b82525050565b6000602082019050611f946000830184611f70565b92915050565b600060208284031215611fb057611faf611c7b565b5b6000611fbe84828501611ec8565b91505092915050565b611fd081611d0a565b8114611fdb57600080fd5b50565b600081359050611fed81611fc7565b92915050565b6000806040838503121561200a57612009611c7b565b5b600061201885828601611ec8565b925050602061202985828601611fde565b9150509250929050565b600080fd5b600080fd5b7f4e487b7100000000000000000000000000000000000000000000000000000000600052604160045260246000fd5b61207582611d86565b810181811067ffffffffffffffff821117156120945761209361203d565b5b80604052505050565b60006120a7611c71565b90506120b3828261206c565b919050565b600067ffffffffffffffff8211156120d3576120d261203d565b5b6120dc82611d86565b9050602081019050919050565b82818337600083830152505050565b600061210b612106846120b8565b61209d565b90508281526020810184848401111561212757612126612038565b5b6121328482856120e9565b509392505050565b600082601f83011261214f5761214e612033565b5b813561215f8482602086016120f8565b91505092915050565b6000806000806080858703121561218257612181611c7b565b5b600061219087828801611ec8565b94505060206121a187828801611ec8565b93505060406121b287828801611e13565b925050606085013567ffffffffffffffff8111156121d3576121d2611c80565b5b6121df8782880161213a565b91505092959194509250565b6000806040838503121561220257612201611c7b565b5b600061221085828601611ec8565b925050602061222185828601611ec8565b9150509250929050565b7f4e487b7100000000000000000000000000000000000000000000000000000000600052602260045260246000fd5b6000600282049050600182168061227257607f821691505b6020821081036122855761228461222b565b5b50919050565b7f4f776e65722063616e6e6f74206d696e74000000000000000000000000000000600082015250565b60006122c1601183611d4b565b91506122cc8261228b565b602082019050919050565b600060208201905081810360008301526122f0816122b4565b9050919050565b7f596f7520616c7265616479206f776e20616e204e465400000000000000000000600082015250565b600061232d601683611d4b565b9150612338826122f7565b602082019050919050565b6000602082019050818103600083015261235c81612320565b9050919050565b7f4e6f204e465473206c65667420746f207472616e736665720000000000000000600082015250565b6000612399601883611d4b565b91506123a482612363565b602082019050919050565b600060208201905081810360008301526123c88161238c565b9050919050565b7f496e73756666696369656e74207061796d656e74000000000000000000000000600082015250565b6000612405601483611d4b565b9150612410826123cf565b602082019050919050565b60006020820190508181036000830152612434816123f8565b9050919050565b7f546f6b656e20616c7265616479207472616e7366657272656400000000000000600082015250565b6000612471601983611d4b565b915061247c8261243b565b602082019050919050565b600060208201905081810360008301526124a081612464565b9050919050565b7f4e487b7100000000000000000000000000000000000000000000000000000000600052601160045260246000fd5b60006124e182611df2565b91507fffffffffffffffffffffffffffffffffffffffffffffffffffffffffffffffff8203612513576125126124a7565b5b600182019050919050565b60006060820190506125336000830186611e87565b6125406020830185611f70565b61254d6040830184611e87565b949350505050565b600081905092915050565b600061256b82611d40565b6125758185612555565b9350612585818560208601611d5c565b80840191505092915050565b600061259d8285612560565b91506125a98284612560565b91508190509392505050565b600081519050919050565b600082825260208201905092915050565b60006125dc826125b5565b6125e681856125c0565b93506125f6818560208601611d5c565b6125ff81611d86565b840191505092915050565b600060808201905061261f6000830187611e87565b61262c6020830186611e87565b6126396040830185611f70565b818103606083015261264b81846125d1565b905095945050505050565b60008151905061266581611cb1565b92915050565b60006020828403121561268157612680611c7b565b5b600061268f84828501612656565b91505092915050565b60006040820190506126ad6000830185611e87565b6126ba6020830184611f70565b9392505050565b7f4e487b7100000000000000000000000000000000000000000000000000000000600052601260045260246000fdfea26469706673582212206b4b53ea97c6c808b9aea2654d0ceb3beff666ee87f84c197b2cf3c027a63b4a64736f6c63430008180033",
  "linkReferences": {},
  "deployedLinkReferences": {}
}